:030000000208D61D
:0C08D600787FE4F6D8FD75810A02085313
:1008000053776974636820737461747573203D2035
:100810005377697463682070726573736564204CE4
:100820004544204F4E0A00537769746368207374FF
:1008300061747573203D20537769746368206E6F0F
:10084000742070726573736564204C4544204F4674
:03085000460A0055
:1008530075A0FFE4F5801208E220A0127BFF7A085E
:100863007900120883D2807F401208C580EB7BFF9A
:100873007A087927120883C2807F401208C580D97D
:0C08E200758920759840758DFDD28E221E
:0808EE008F993099FDC2992297
:100883008B088A09890AAB08AA09A90A1208AC606D
:1008930013050AE50A7002050914F91208ACFF12E0
:0908A30008EE80E27F800208C526
:1008C500E4FEEEC39F5009E4FD0DBD72FC0E80F2FF
:0108D5002200
:1008AC00BB010689828A83E0225002E722BBFE024A
:0908BC00E32289828A83E493227D
:00000001FF
