:030000000208747F
:0C087400787FE4F6D8FD75810702086467
:10086400E4F5A0F59043A00F12080012084080F5AB
:1008000043903F12084075900612084075905B12A5
:10081000084075904F120840759066120840759018
:100820006D12084075907D120840759007120840BF
:1008300075907F1208407590677FE87E0302084438
:04088E0043903F2232
:0708800043A00343903F2257
:0708870043A00443903F224F
:040840007FE87E03CC
:10084400E4FDFCC3ED9FEC9E5015E4FBFA0BBB00EA
:0F085400010AEB64724A70F50DBD00010C80E4DF
:010863002272
:00000001FF
